{
  "_format": "hh-sol-artifact-1",
  "contractName": "MultiSendX",
  "sourceName": "contracts/MultiSendX.sol",
  "abi": [
    {
      "inputs": [
        {
          "internalType": "uint256",
          "name": "requiredAllowance",
          "type": "uint256"
        },
        {
          "internalType": "uint256",
          "name": "currentAllowance",
          "type": "uint256"
        }
      ],
      "name": "InsufficientAllowance",
      "type": "error"
    },
    {
      "anonymous": false,
      "inputs": [
        {
          "indexed": true,
          "internalType": "address",
          "name": "from",
          "type": "address"
        },
        {
          "indexed": true,
          "internalType": "address",
          "name": "to",
          "type": "address"
        },
        {
          "indexed": false,
          "internalType": "uint256",
          "name": "amount",
          "type": "uint256"
        }
      ],
      "name": "NativeTransfer",
      "type": "event"
    },
    {
      "stateMutability": "payable",
      "type": "fallback"
    },
    {
      "inputs": [
        {
          "internalType": "address[]",
          "name": "recipients",
          "type": "address[]"
        },
        {
          "internalType": "uint256[]",
          "name": "values",
          "type": "uint256[]"
        }
      ],
      "name": "multiSendEth",
      "outputs": [],
      "stateMutability": "payable",
      "type": "function"
    },
    {
      "inputs": [
        {
          "internalType": "address payable",
          "name": "recipient",
          "type": "address"
        },
        {
          "internalType": "uint256",
          "name": "amount",
          "type": "uint256"
        }
      ],
      "name": "sendEther",
      "outputs": [],
      "stateMutability": "payable",
      "type": "function"
    },
    {
      "inputs": [
        {
          "components": [
            {
              "internalType": "address",
              "name": "recipient",
              "type": "address"
            },
            {
              "internalType": "contract IERC20",
              "name": "token",
              "type": "address"
            },
            {
              "internalType": "uint256",
              "name": "amount",
              "type": "uint256"
            }
          ],
          "internalType": "struct MultiTokenTransferDetail[]",
          "name": "transfers",
          "type": "tuple[]"
        }
      ],
      "name": "sendMultipleTokensToMultipleAddresses",
      "outputs": [],
      "stateMutability": "nonpayable",
      "type": "function"
    },
    {
      "inputs": [
        {
          "internalType": "contract IERC20",
          "name": "tokenAddress",
          "type": "address"
        },
        {
          "internalType": "address[]",
          "name": "recipients",
          "type": "address[]"
        },
        {
          "internalType": "uint256[]",
          "name": "amounts",
          "type": "uint256[]"
        }
      ],
      "name": "sendTokenToMultipleAddresses",
      "outputs": [],
      "stateMutability": "nonpayable",
      "type": "function"
    },
    {
      "inputs": [],
      "name": "token",
      "outputs": [
        {
          "internalType": "contract IERC20",
          "name": "",
          "type": "address"
        }
      ],
      "stateMutability": "view",
      "type": "function"
    },
    {
      "stateMutability": "payable",
      "type": "receive"
    }
  ],
  "bytecode": "0x608060405234801561001057600080fd5b50611b5b806100206000396000f3fe60806040526004361061004e5760003560e01c806363c0bef114610096578063a47d62cc146100bf578063c1756a2c146100e8578063e702d7af14610104578063fc0c546a1461012057610055565b3661005557005b6100946040518060400160405280600f81526020017f2d2d2d2d2d2066616c6c6261636b3a00000000000000000000000000000000008152503461014b565b005b3480156100a257600080fd5b506100bd60048036038101906100b89190610f71565b6101e7565b005b3480156100cb57600080fd5b506100e660048036038101906100e19190611128565b61060e565b005b61010260048036038101906100fd91906111af565b6108f0565b005b61011e600480360381019061011991906112a0565b610a74565b005b34801561012c57600080fd5b50610135610bfb565b6040516101429190611380565b60405180910390f35b6101e38282604051602401610161929190611429565b6040516020818303038152906040527fb60e72cc000000000000000000000000000000000000000000000000000000007bffffffffffffffffffffffffffffffffffffffffffffffffffffffff19166020820180517bffffffffffffffffffffffffffffffffffffffffffffffffffffffff8381831617835250505050610c1f565b5050565b805182511461022b576040517f08c379a0000000000000000000000000000000000000000000000000000000008152600401610222906114cb565b60405180910390fd5b826000806101000a81548173ffffffffffffffffffffffffffffffffffffffff021916908373ffffffffffffffffffffffffffffffffffffffff16021790555060008373ffffffffffffffffffffffffffffffffffffffff166370a08231336040518263ffffffff1660e01b81526004016102a691906114fa565b602060405180830381865afa1580156102c3573d6000803e3d6000fd5b505050506040513d601f19601f820116820180604052508101906102e7919061152a565b905060008473ffffffffffffffffffffffffffffffffffffffff1663dd62ed3e33306040518363ffffffff1660e01b8152600401610326929190611557565b602060405180830381865afa158015610343573d6000803e3d6000fd5b505050506040513d601f19601f82011682018060405250810190610367919061152a565b90506000805b85518110156103ab5784818151811061038957610388611580565b5b60200260200101518261039c91906115de565b9150808060010191505061036d565b50808310156103ef576040517f08c379a00000000000000000000000000000000000000000000000000000000081526004016103e69061165e565b60405180910390fd5b80821015610432576040517f08c379a0000000000000000000000000000000000000000000000000000000008152600401610429906116f0565b60405180910390fd5b60008054906101000a900473ffffffffffffffffffffffffffffffffffffffff1673ffffffffffffffffffffffffffffffffffffffff166323b872dd3330846040518463ffffffff1660e01b815260040161048f93929190611710565b6020604051808303816000875af11580156104ae573d6000803e3d6000fd5b505050506040513d601f19601f820116820180604052508101906104d2919061177f565b6104db57600080fd5b60005b85518110156106055760008054906101000a900473ffffffffffffffffffffffffffffffffffffffff1673ffffffffffffffffffffffffffffffffffffffff1663a9059cbb87838151811061053657610535611580565b5b602002602001015187848151811061055157610550611580565b5b60200260200101516040518363ffffffff1660e01b81526004016105769291906117ac565b6020604051808303816000875af1158015610595573d6000803e3d6000fd5b505050506040513d601f19601f820116820180604052508101906105b9919061177f565b6105f8576040517f08c379a00000000000000000000000000000000000000000000000000000000081526004016105ef90611821565b60405180910390fd5b80806001019150506104de565b50505050505050565b60005b81518110156108ec57600082828151811061062f5761062e611580565b5b6020026020010151905080602001516000806101000a81548173ffffffffffffffffffffffffffffffffffffffff021916908373ffffffffffffffffffffffffffffffffffffffff1602179055506000816020015173ffffffffffffffffffffffffffffffffffffffff166370a08231336040518263ffffffff1660e01b81526004016106bc91906114fa565b602060405180830381865afa1580156106d9573d6000803e3d6000fd5b505050506040513d601f19601f820116820180604052508101906106fd919061152a565b90506000826020015173ffffffffffffffffffffffffffffffffffffffff1663dd62ed3e33306040518363ffffffff1660e01b8152600401610740929190611557565b602060405180830381865afa15801561075d573d6000803e3d6000fd5b505050506040513d601f19601f82011682018060405250810190610781919061152a565b905082604001518210156107ca576040517f08c379a00000000000000000000000000000000000000000000000000000000081526004016107c19061165e565b60405180910390fd5b8260400151811015610811576040517f08c379a00000000000000000000000000000000000000000000000000000000081526004016108089061188d565b60405180910390fd5b826020015173ffffffffffffffffffffffffffffffffffffffff166323b872dd33856000015186604001516040518463ffffffff1660e01b815260040161085a93929190611710565b6020604051808303816000875af1158015610879573d6000803e3d6000fd5b505050506040513d601f19601f8201168201806040525081019061089d919061177f565b6108dc576040517f08c379a00000000000000000000000000000000000000000000000000000000081526004016108d3906118f9565b60405180910390fd5b5050508080600101915050610611565b5050565b80471015610933576040517f08c379a000000000000000000000000000000000000000000000000000000000815260040161092a90611965565b60405180910390fd5b60008273ffffffffffffffffffffffffffffffffffffffff1682604051610959906119b6565b60006040518083038185875af1925050503d8060008114610996576040519150601f19603f3d011682016040523d82523d6000602084013e61099b565b606091505b50509050806109df576040517f08c379a00000000000000000000000000000000000000000000000000000000081526004016109d690611a17565b60405180910390fd5b60004790506000811115610a6e57600033905060008173ffffffffffffffffffffffffffffffffffffffff166108fc849081150290604051600060405180830381858888f19350505050905080610a6b576040517f08c379a0000000000000000000000000000000000000000000000000000000008152600401610a6290611a17565b60405180910390fd5b50505b50505050565b818190508484905014610abc576040517f08c379a0000000000000000000000000000000000000000000000000000000008152600401610ab390611aa9565b60405180910390fd5b60005b84849050811015610b64576000858583818110610adf57610ade611580565b5b9050602002016020810190610af49190611ac9565b90508073ffffffffffffffffffffffffffffffffffffffff166108fc858585818110610b2357610b22611580565b5b905060200201359081150290604051600060405180830381858888f19350505050158015610b55573d6000803e3d6000fd5b50508080600101915050610abf565b5060004790506000811115610bf457600033905060008173ffffffffffffffffffffffffffffffffffffffff166108fc849081150290604051600060405180830381858888f19350505050905080610bf1576040517f08c379a0000000000000000000000000000000000000000000000000000000008152600401610be890611a17565b60405180910390fd5b50505b5050505050565b60008054906101000a900473ffffffffffffffffffffffffffffffffffffffff1681565b610c3681610c2e610c39610c5a565b63ffffffff16565b50565b60006a636f6e736f6c652e6c6f679050600080835160208501845afa505050565b610c65819050919050565b610c6d611af6565b565b6000604051905090565b600080fd5b600080fd5b600073ffffffffffffffffffffffffffffffffffffffff82169050919050565b6000610cae82610c83565b9050919050565b6000610cc082610ca3565b9050919050565b610cd081610cb5565b8114610cdb57600080fd5b50565b600081359050610ced81610cc7565b92915050565b600080fd5b6000601f19601f8301169050919050565b7f4e487b7100000000000000000000000000000000000000000000000000000000600052604160045260246000fd5b610d4182610cf8565b810181811067ffffffffffffffff82111715610d6057610d5f610d09565b5b80604052505050565b6000610d73610c6f565b9050610d7f8282610d38565b919050565b600067ffffffffffffffff821115610d9f57610d9e610d09565b5b602082029050602081019050919050565b600080fd5b610dbe81610ca3565b8114610dc957600080fd5b50565b600081359050610ddb81610db5565b92915050565b6000610df4610def84610d84565b610d69565b90508083825260208201905060208402830185811115610e1757610e16610db0565b5b835b81811015610e405780610e2c8882610dcc565b845260208401935050602081019050610e19565b5050509392505050565b600082601f830112610e5f57610e5e610cf3565b5b8135610e6f848260208601610de1565b91505092915050565b600067ffffffffffffffff821115610e9357610e92610d09565b5b602082029050602081019050919050565b6000819050919050565b610eb781610ea4565b8114610ec257600080fd5b50565b600081359050610ed481610eae565b92915050565b6000610eed610ee884610e78565b610d69565b90508083825260208201905060208402830185811115610f1057610f0f610db0565b5b835b81811015610f395780610f258882610ec5565b845260208401935050602081019050610f12565b5050509392505050565b600082601f830112610f5857610f57610cf3565b5b8135610f68848260208601610eda565b91505092915050565b600080600060608486031215610f8a57610f89610c79565b5b6000610f9886828701610cde565b935050602084013567ffffffffffffffff811115610fb957610fb8610c7e565b5b610fc586828701610e4a565b925050604084013567ffffffffffffffff811115610fe657610fe5610c7e565b5b610ff286828701610f43565b9150509250925092565b600067ffffffffffffffff82111561101757611016610d09565b5b602082029050602081019050919050565b600080fd5b60006060828403121561104357611042611028565b5b61104d6060610d69565b9050600061105d84828501610dcc565b600083015250602061107184828501610cde565b602083015250604061108584828501610ec5565b60408301525092915050565b60006110a461109f84610ffc565b610d69565b905080838252602082019050606084028301858111156110c7576110c6610db0565b5b835b818110156110f057806110dc888261102d565b8452602084019350506060810190506110c9565b5050509392505050565b600082601f83011261110f5761110e610cf3565b5b813561111f848260208601611091565b91505092915050565b60006020828403121561113e5761113d610c79565b5b600082013567ffffffffffffffff81111561115c5761115b610c7e565b5b611168848285016110fa565b91505092915050565b600061117c82610c83565b9050919050565b61118c81611171565b811461119757600080fd5b50565b6000813590506111a981611183565b92915050565b600080604083850312156111c6576111c5610c79565b5b60006111d48582860161119a565b92505060206111e585828601610ec5565b9150509250929050565b600080fd5b60008083601f84011261120a57611209610cf3565b5b8235905067ffffffffffffffff811115611227576112266111ef565b5b60208301915083602082028301111561124357611242610db0565b5b9250929050565b60008083601f8401126112605761125f610cf3565b5b8235905067ffffffffffffffff81111561127d5761127c6111ef565b5b60208301915083602082028301111561129957611298610db0565b5b9250929050565b600080600080604085870312156112ba576112b9610c79565b5b600085013567ffffffffffffffff8111156112d8576112d7610c7e565b5b6112e4878288016111f4565b9450945050602085013567ffffffffffffffff81111561130757611306610c7e565b5b6113138782880161124a565b925092505092959194509250565b6000819050919050565b600061134661134161133c84610c83565b611321565b610c83565b9050919050565b60006113588261132b565b9050919050565b600061136a8261134d565b9050919050565b61137a8161135f565b82525050565b60006020820190506113956000830184611371565b92915050565b600081519050919050565b600082825260208201905092915050565b60005b838110156113d55780820151818401526020810190506113ba565b60008484015250505050565b60006113ec8261139b565b6113f681856113a6565b93506114068185602086016113b7565b61140f81610cf8565b840191505092915050565b61142381610ea4565b82525050565b6000604082019050818103600083015261144381856113e1565b9050611452602083018461141a565b9392505050565b7f526563697069656e747320616e6420616d6f756e747320636f756e74206d697360008201527f6d61746368000000000000000000000000000000000000000000000000000000602082015250565b60006114b56025836113a6565b91506114c082611459565b604082019050919050565b600060208201905081810360008301526114e4816114a8565b9050919050565b6114f481610ca3565b82525050565b600060208201905061150f60008301846114eb565b92915050565b60008151905061152481610eae565b92915050565b6000602082840312156115405761153f610c79565b5b600061154e84828501611515565b91505092915050565b600060408201905061156c60008301856114eb565b61157960208301846114eb565b9392505050565b7f4e487b7100000000000000000000000000000000000000000000000000000000600052603260045260246000fd5b7f4e487b7100000000000000000000000000000000000000000000000000000000600052601160045260246000fd5b60006115e982610ea4565b91506115f483610ea4565b925082820190508082111561160c5761160b6115af565b5b92915050565b7f496e73756666696369656e742062616c616e6365000000000000000000000000600082015250565b60006116486014836113a6565b915061165382611612565b602082019050919050565b600060208201905081810360008301526116778161163b565b9050919050565b7f57616c6c65742068617320696e73756666696369656e7420616c6c6f77616e6360008201527f6500000000000000000000000000000000000000000000000000000000000000602082015250565b60006116da6021836113a6565b91506116e58261167e565b604082019050919050565b60006020820190508181036000830152611709816116cd565b9050919050565b600060608201905061172560008301866114eb565b61173260208301856114eb565b61173f604083018461141a565b949350505050565b60008115159050919050565b61175c81611747565b811461176757600080fd5b50565b60008151905061177981611753565b92915050565b60006020828403121561179557611794610c79565b5b60006117a38482850161176a565b91505092915050565b60006040820190506117c160008301856114eb565b6117ce602083018461141a565b9392505050565b7f4661696c656420746f207472616e7366657220746f6b656e0000000000000000600082015250565b600061180b6018836113a6565b9150611816826117d5565b602082019050919050565b6000602082019050818103600083015261183a816117fe565b9050919050565b7f496e73756666696369656e7420616c6c6f77616e636500000000000000000000600082015250565b60006118776016836113a6565b915061188282611841565b602082019050919050565b600060208201905081810360008301526118a68161186a565b9050919050565b7f4661696c656420746f207472616e7366657220746f6b656e7300000000000000600082015250565b60006118e36019836113a6565b91506118ee826118ad565b602082019050919050565b60006020820190508181036000830152611912816118d6565b9050919050565b7f496e73756666696369656e742062616c616e636520696e20636f6e7472616374600082015250565b600061194f6020836113a6565b915061195a82611919565b602082019050919050565b6000602082019050818103600083015261197e81611942565b9050919050565b600081905092915050565b50565b60006119a0600083611985565b91506119ab82611990565b600082019050919050565b60006119c182611993565b9150819050919050565b7f4661696c656420746f2073656e64204574686572000000000000000000000000600082015250565b6000611a016014836113a6565b9150611a0c826119cb565b602082019050919050565b60006020820190508181036000830152611a30816119f4565b9050919050565b7f526563697069656e747320616e642076616c756573206c656e677468206d697360008201527f6d61746368000000000000000000000000000000000000000000000000000000602082015250565b6000611a936025836113a6565b9150611a9e82611a37565b604082019050919050565b60006020820190508181036000830152611ac281611a86565b9050919050565b600060208284031215611adf57611ade610c79565b5b6000611aed84828501610dcc565b91505092915050565b7f4e487b7100000000000000000000000000000000000000000000000000000000600052605160045260246000fdfea26469706673582212200dbf488937185b30e6d0ec35fbda5ae3b6b6802e10a0cecf35c74572ab0f9e7864736f6c63430008170033",
  "linkReferences": {},
  "deployedLinkReferences": {}
}