{
    "_format": "hh-sol-artifact-1",
    "contractName": "MultiSendX",
    "sourceName": "contracts/MultiSendX.sol",
    "abi": [
        {
            "anonymous": false,
            "inputs": [
                {
                    "indexed": true,
                    "internalType": "address",
                    "name": "from",
                    "type": "address"
                },
                {
                    "indexed": true,
                    "internalType": "address",
                    "name": "to",
                    "type": "address"
                },
                {
                    "indexed": false,
                    "internalType": "uint256",
                    "name": "amount",
                    "type": "uint256"
                }
            ],
            "name": "NativeTransfer",
            "type": "event"
        },
        {
            "inputs": [
                {
                    "internalType": "address[]",
                    "name": "recipients",
                    "type": "address[]"
                },
                {
                    "internalType": "uint256[]",
                    "name": "values",
                    "type": "uint256[]"
                }
            ],
            "name": "multiSendEth",
            "outputs": [],
            "stateMutability": "payable",
            "type": "function"
        },
        {
            "inputs": [
                {
                    "internalType": "address payable",
                    "name": "recipient",
                    "type": "address"
                },
                {
                    "internalType": "uint256",
                    "name": "amount",
                    "type": "uint256"
                }
            ],
            "name": "sendEther",
            "outputs": [],
            "stateMutability": "payable",
            "type": "function"
        },
        {
            "inputs": [
                {
                    "components": [
                        {
                            "internalType": "address",
                            "name": "recipient",
                            "type": "address"
                        },
                        {
                            "internalType": "contract IERC20",
                            "name": "token",
                            "type": "address"
                        },
                        {
                            "internalType": "uint256",
                            "name": "amount",
                            "type": "uint256"
                        }
                    ],
                    "internalType": "struct MultiTokenTransferDetail[]",
                    "name": "transfers",
                    "type": "tuple[]"
                }
            ],
            "name": "sendMultipleTokensToMultipleAddresses",
            "outputs": [],
            "stateMutability": "nonpayable",
            "type": "function"
        },
        {
            "inputs": [
                {
                    "internalType": "contract IERC20",
                    "name": "tokenAddress",
                    "type": "address"
                },
                {
                    "internalType": "address[]",
                    "name": "recipients",
                    "type": "address[]"
                },
                {
                    "internalType": "uint256[]",
                    "name": "amounts",
                    "type": "uint256[]"
                }
            ],
            "name": "sendTokenToMultipleAddresses",
            "outputs": [],
            "stateMutability": "nonpayable",
            "type": "function"
        },
        {
            "inputs": [],
            "name": "token",
            "outputs": [
                {
                    "internalType": "contract IERC20",
                    "name": "",
                    "type": "address"
                }
            ],
            "stateMutability": "view",
            "type": "function"
        },
        {
            "stateMutability": "payable",
            "type": "receive"
        }
    ],
    "bytecode": "0x608060405234801561001057600080fd5b506118d4806100206000396000f3fe60806040526004361061004e5760003560e01c806363c0bef11461005a578063a47d62cc14610083578063c1756a2c146100ac578063e702d7af146100c8578063fc0c546a146100e457610055565b3661005557005b600080fd5b34801561006657600080fd5b50610081600480360381019061007c9190610e49565b61010f565b005b34801561008f57600080fd5b506100aa60048036038101906100a59190611000565b610536565b005b6100c660048036038101906100c19190611087565b610818565b005b6100e260048036038101906100dd9190611178565b61099c565b005b3480156100f057600080fd5b506100f9610b23565b6040516101069190611258565b60405180910390f35b8051825114610153576040517f08c379a000000000000000000000000000000000000000000000000000000000815260040161014a906112f6565b60405180910390fd5b826000806101000a81548173ffffffffffffffffffffffffffffffffffffffff021916908373ffffffffffffffffffffffffffffffffffffffff16021790555060008373ffffffffffffffffffffffffffffffffffffffff166370a08231336040518263ffffffff1660e01b81526004016101ce9190611325565b602060405180830381865afa1580156101eb573d6000803e3d6000fd5b505050506040513d601f19601f8201168201806040525081019061020f9190611355565b905060008473ffffffffffffffffffffffffffffffffffffffff1663dd62ed3e33306040518363ffffffff1660e01b815260040161024e929190611382565b602060405180830381865afa15801561026b573d6000803e3d6000fd5b505050506040513d601f19601f8201168201806040525081019061028f9190611355565b90506000805b85518110156102d3578481815181106102b1576102b06113ab565b5b6020026020010151826102c49190611409565b91508080600101915050610295565b5080831015610317576040517f08c379a000000000000000000000000000000000000000000000000000000000815260040161030e90611489565b60405180910390fd5b8082101561035a576040517f08c379a0000000000000000000000000000000000000000000000000000000008152600401610351906114f5565b60405180910390fd5b60008054906101000a900473ffffffffffffffffffffffffffffffffffffffff1673ffffffffffffffffffffffffffffffffffffffff166323b872dd3330846040518463ffffffff1660e01b81526004016103b793929190611524565b6020604051808303816000875af11580156103d6573d6000803e3d6000fd5b505050506040513d601f19601f820116820180604052508101906103fa9190611593565b61040357600080fd5b60005b855181101561052d5760008054906101000a900473ffffffffffffffffffffffffffffffffffffffff1673ffffffffffffffffffffffffffffffffffffffff1663a9059cbb87838151811061045e5761045d6113ab565b5b6020026020010151878481518110610479576104786113ab565b5b60200260200101516040518363ffffffff1660e01b815260040161049e9291906115c0565b6020604051808303816000875af11580156104bd573d6000803e3d6000fd5b505050506040513d601f19601f820116820180604052508101906104e19190611593565b610520576040517f08c379a000000000000000000000000000000000000000000000000000000000815260040161051790611635565b60405180910390fd5b8080600101915050610406565b50505050505050565b60005b8151811015610814576000828281518110610557576105566113ab565b5b6020026020010151905080602001516000806101000a81548173ffffffffffffffffffffffffffffffffffffffff021916908373ffffffffffffffffffffffffffffffffffffffff1602179055506000816020015173ffffffffffffffffffffffffffffffffffffffff166370a08231336040518263ffffffff1660e01b81526004016105e49190611325565b602060405180830381865afa158015610601573d6000803e3d6000fd5b505050506040513d601f19601f820116820180604052508101906106259190611355565b90506000826020015173ffffffffffffffffffffffffffffffffffffffff1663dd62ed3e33306040518363ffffffff1660e01b8152600401610668929190611382565b602060405180830381865afa158015610685573d6000803e3d6000fd5b505050506040513d601f19601f820116820180604052508101906106a99190611355565b905082604001518210156106f2576040517f08c379a00000000000000000000000000000000000000000000000000000000081526004016106e990611489565b60405180910390fd5b8260400151811015610739576040517f08c379a0000000000000000000000000000000000000000000000000000000008152600401610730906114f5565b60405180910390fd5b826020015173ffffffffffffffffffffffffffffffffffffffff166323b872dd33856000015186604001516040518463ffffffff1660e01b815260040161078293929190611524565b6020604051808303816000875af11580156107a1573d6000803e3d6000fd5b505050506040513d601f19601f820116820180604052508101906107c59190611593565b610804576040517f08c379a00000000000000000000000000000000000000000000000000000000081526004016107fb906116a1565b60405180910390fd5b5050508080600101915050610539565b5050565b8047101561085b576040517f08c379a00000000000000000000000000000000000000000000000000000000081526004016108529061170d565b60405180910390fd5b60008273ffffffffffffffffffffffffffffffffffffffff16826040516108819061175e565b60006040518083038185875af1925050503d80600081146108be576040519150601f19603f3d011682016040523d82523d6000602084013e6108c3565b606091505b5050905080610907576040517f08c379a00000000000000000000000000000000000000000000000000000000081526004016108fe906117bf565b60405180910390fd5b6000479050600081111561099657600033905060008173ffffffffffffffffffffffffffffffffffffffff166108fc849081150290604051600060405180830381858888f19350505050905080610993576040517f08c379a000000000000000000000000000000000000000000000000000000000815260040161098a906117bf565b60405180910390fd5b50505b50505050565b8181905084849050146109e4576040517f08c379a00000000000000000000000000000000000000000000000000000000081526004016109db90611851565b60405180910390fd5b60005b84849050811015610a8c576000858583818110610a0757610a066113ab565b5b9050602002016020810190610a1c9190611871565b90508073ffffffffffffffffffffffffffffffffffffffff166108fc858585818110610a4b57610a4a6113ab565b5b905060200201359081150290604051600060405180830381858888f19350505050158015610a7d573d6000803e3d6000fd5b505080806001019150506109e7565b5060004790506000811115610b1c57600033905060008173ffffffffffffffffffffffffffffffffffffffff166108fc849081150290604051600060405180830381858888f19350505050905080610b19576040517f08c379a0000000000000000000000000000000000000000000000000000000008152600401610b10906117bf565b60405180910390fd5b50505b5050505050565b60008054906101000a900473ffffffffffffffffffffffffffffffffffffffff1681565b6000604051905090565b600080fd5b600080fd5b600073ffffffffffffffffffffffffffffffffffffffff82169050919050565b6000610b8682610b5b565b9050919050565b6000610b9882610b7b565b9050919050565b610ba881610b8d565b8114610bb357600080fd5b50565b600081359050610bc581610b9f565b92915050565b600080fd5b6000601f19601f8301169050919050565b7f4e487b7100000000000000000000000000000000000000000000000000000000600052604160045260246000fd5b610c1982610bd0565b810181811067ffffffffffffffff82111715610c3857610c37610be1565b5b80604052505050565b6000610c4b610b47565b9050610c578282610c10565b919050565b600067ffffffffffffffff821115610c7757610c76610be1565b5b602082029050602081019050919050565b600080fd5b610c9681610b7b565b8114610ca157600080fd5b50565b600081359050610cb381610c8d565b92915050565b6000610ccc610cc784610c5c565b610c41565b90508083825260208201905060208402830185811115610cef57610cee610c88565b5b835b81811015610d185780610d048882610ca4565b845260208401935050602081019050610cf1565b5050509392505050565b600082601f830112610d3757610d36610bcb565b5b8135610d47848260208601610cb9565b91505092915050565b600067ffffffffffffffff821115610d6b57610d6a610be1565b5b602082029050602081019050919050565b6000819050919050565b610d8f81610d7c565b8114610d9a57600080fd5b50565b600081359050610dac81610d86565b92915050565b6000610dc5610dc084610d50565b610c41565b90508083825260208201905060208402830185811115610de857610de7610c88565b5b835b81811015610e115780610dfd8882610d9d565b845260208401935050602081019050610dea565b5050509392505050565b600082601f830112610e3057610e2f610bcb565b5b8135610e40848260208601610db2565b91505092915050565b600080600060608486031215610e6257610e61610b51565b5b6000610e7086828701610bb6565b935050602084013567ffffffffffffffff811115610e9157610e90610b56565b5b610e9d86828701610d22565b925050604084013567ffffffffffffffff811115610ebe57610ebd610b56565b5b610eca86828701610e1b565b9150509250925092565b600067ffffffffffffffff821115610eef57610eee610be1565b5b602082029050602081019050919050565b600080fd5b600060608284031215610f1b57610f1a610f00565b5b610f256060610c41565b90506000610f3584828501610ca4565b6000830152506020610f4984828501610bb6565b6020830152506040610f5d84828501610d9d565b60408301525092915050565b6000610f7c610f7784610ed4565b610c41565b90508083825260208201905060608402830185811115610f9f57610f9e610c88565b5b835b81811015610fc85780610fb48882610f05565b845260208401935050606081019050610fa1565b5050509392505050565b600082601f830112610fe757610fe6610bcb565b5b8135610ff7848260208601610f69565b91505092915050565b60006020828403121561101657611015610b51565b5b600082013567ffffffffffffffff81111561103457611033610b56565b5b61104084828501610fd2565b91505092915050565b600061105482610b5b565b9050919050565b61106481611049565b811461106f57600080fd5b50565b6000813590506110818161105b565b92915050565b6000806040838503121561109e5761109d610b51565b5b60006110ac85828601611072565b92505060206110bd85828601610d9d565b9150509250929050565b600080fd5b60008083601f8401126110e2576110e1610bcb565b5b8235905067ffffffffffffffff8111156110ff576110fe6110c7565b5b60208301915083602082028301111561111b5761111a610c88565b5b9250929050565b60008083601f84011261113857611137610bcb565b5b8235905067ffffffffffffffff811115611155576111546110c7565b5b60208301915083602082028301111561117157611170610c88565b5b9250929050565b6000806000806040858703121561119257611191610b51565b5b600085013567ffffffffffffffff8111156111b0576111af610b56565b5b6111bc878288016110cc565b9450945050602085013567ffffffffffffffff8111156111df576111de610b56565b5b6111eb87828801611122565b925092505092959194509250565b6000819050919050565b600061121e61121961121484610b5b565b6111f9565b610b5b565b9050919050565b600061123082611203565b9050919050565b600061124282611225565b9050919050565b61125281611237565b82525050565b600060208201905061126d6000830184611249565b92915050565b600082825260208201905092915050565b7f526563697069656e747320616e6420616d6f756e747320636f756e74206d697360008201527f6d61746368000000000000000000000000000000000000000000000000000000602082015250565b60006112e0602583611273565b91506112eb82611284565b604082019050919050565b6000602082019050818103600083015261130f816112d3565b9050919050565b61131f81610b7b565b82525050565b600060208201905061133a6000830184611316565b92915050565b60008151905061134f81610d86565b92915050565b60006020828403121561136b5761136a610b51565b5b600061137984828501611340565b91505092915050565b60006040820190506113976000830185611316565b6113a46020830184611316565b9392505050565b7f4e487b7100000000000000000000000000000000000000000000000000000000600052603260045260246000fd5b7f4e487b7100000000000000000000000000000000000000000000000000000000600052601160045260246000fd5b600061141482610d7c565b915061141f83610d7c565b9250828201905080821115611437576114366113da565b5b92915050565b7f496e73756666696369656e742062616c616e6365000000000000000000000000600082015250565b6000611473601483611273565b915061147e8261143d565b602082019050919050565b600060208201905081810360008301526114a281611466565b9050919050565b7f496e73756666696369656e7420616c6c6f77616e636500000000000000000000600082015250565b60006114df601683611273565b91506114ea826114a9565b602082019050919050565b6000602082019050818103600083015261150e816114d2565b9050919050565b61151e81610d7c565b82525050565b60006060820190506115396000830186611316565b6115466020830185611316565b6115536040830184611515565b949350505050565b60008115159050919050565b6115708161155b565b811461157b57600080fd5b50565b60008151905061158d81611567565b92915050565b6000602082840312156115a9576115a8610b51565b5b60006115b78482850161157e565b91505092915050565b60006040820190506115d56000830185611316565b6115e26020830184611515565b9392505050565b7f4661696c656420746f207472616e7366657220746f6b656e0000000000000000600082015250565b600061161f601883611273565b915061162a826115e9565b602082019050919050565b6000602082019050818103600083015261164e81611612565b9050919050565b7f4661696c656420746f207472616e7366657220746f6b656e7300000000000000600082015250565b600061168b601983611273565b915061169682611655565b602082019050919050565b600060208201905081810360008301526116ba8161167e565b9050919050565b7f496e73756666696369656e742062616c616e636520696e20636f6e7472616374600082015250565b60006116f7602083611273565b9150611702826116c1565b602082019050919050565b60006020820190508181036000830152611726816116ea565b9050919050565b600081905092915050565b50565b600061174860008361172d565b915061175382611738565b600082019050919050565b60006117698261173b565b9150819050919050565b7f4661696c656420746f2073656e64204574686572000000000000000000000000600082015250565b60006117a9601483611273565b91506117b482611773565b602082019050919050565b600060208201905081810360008301526117d88161179c565b9050919050565b7f526563697069656e747320616e642076616c756573206c656e677468206d697360008201527f6d61746368000000000000000000000000000000000000000000000000000000602082015250565b600061183b602583611273565b9150611846826117df565b604082019050919050565b6000602082019050818103600083015261186a8161182e565b9050919050565b60006020828403121561188757611886610b51565b5b600061189584828501610ca4565b9150509291505056fea26469706673582212209fd8c823e95b45962ffc93218f2d9b27aae92c2b95be335b0943e1752e337c7764736f6c63430008170033",
    "linkReferences": {},
    "deployedLinkReferences": {}
}